:020000040800F2
:10000000600600200D020008150200081702000813
:10001000190200081B0200081D0200080000000071
:100020000000000000000000000000001F020008A7
:100030002102000800000000230200082502000839
:1000400027020008270200082702000827020008EC
:1000500027020008270200082702000827020008DC
:1000600027020008270200082702000827020008CC
:1000700027020008270200082702000827020008BC
:1000800027020008270200082702000827020008AC
:10009000270200082702000827020008270200089C
:1000A000270200082702000827020008270200088C
:1000B000270200082702000827020008270200087C
:1000C000270200082702000827020008270200086C
:1000D000270200082702000827020008270200085C
:1000E000270200082702000827020008270200084C
:1000F000270200082702000827020008270200083C
:10010000270200082702000827020008270200082B
:10011000270200082702000827020008270200081B
:10012000270200082702000827020008270200080B
:1001300027020008270200082702000827020008FB
:1001400027020008270200082702000827020008EB
:1001500027020008270200082702000827020008DB
:1001600027020008270200082702000827020008CB
:1001700027020008270200082702000800000000EC
:10018000270200082702000800F002F800F02EF80D
:100190000AA090E8000C82448344AAF10107DA45E2
:1001A00001D100F023F8AFF2090EBAE80F0013F006
:1001B000010F18BFFB1A43F001031847880900001C
:1001C000980900000023002400250026103A28BFCB
:1001D00078C1FBD8520728BF30C148BF0B607047B9
:1001E0001FB500F0A9FC1FBD10B510BD00F058F8F8
:1001F0001146FFF7F5FF00F071FC00F076F803B44C
:10020000FFF7F2FF03BC00F07DF8000009488047CB
:1002100009480047FEE7FEE7FEE7FEE7FEE7FEE7E8
:10022000FEE7FEE7FEE7FEE704480549054A064B00
:1002300070470000DD080008890100086000002008
:100240006006002060020020600200204FF00002E3
:1002500000B5134694469646203922BFA0E80C50BC
:10026000A0E80C50B1F12001BFF4F7AF090728BF97
:10027000A0E80C5048BF0CC05DF804EB890028BF13
:1002800040F8042B08BF704748BF20F8022B11F03C
:10029000804F18BF00F8012B7047704770477047B8
:1002A000754600F02BF8AE4605006946534620F02F
:1002B0000700854618B020B5FFF7B6FFBDE820401F
:1002C0004FF000064FF000074FF000084FF0000B12
:1002D00021F00701AC46ACE8C009ACE8C009ACE8C5
:1002E000C009ACE8C0098D46704710B50446AFF3AD
:1002F00000802046BDE81040FFF781BF00487047EE
:100300000000002001491820ABBEFEE726000200D5
:10031000704700000EB50020009001900290084840
:1003200000900D208DF8040000218DF805108DF847
:10033000071002218DF80610684600F003F80EBD84
:1003400000080240F0B5044600250121206800F0B5
:1003500031F96079032813DC60792179490000FACA
:1003600001F52068006821794A0003219140884303
:1003700021680860206800682843216808609EE0C2
:100380006179042911D18049096827790126BE4085
:1003900031437D4E3160311F096827790126BE4007
:1003A000B143794E361F316029E06179052912D1B8
:1003B0007549091F096827790126BE403143724EED
:1003C000361F3160311D096827790126BE40B143CF
:1003D0006D4E316013E06179062910D16A490968D0
:1003E00027790126BE403143674E3160311F0968CD
:1003F00027790126BE403143634E361F3160217993
:10040000CE1701EB9676B0102179CE1701EB9676D8
:10041000B610A1EB8606F2B25C4E2168B14201D162
:10042000002130E05A4E2168B14201D101212AE079
:10043000584E2168B14201D1022124E0564E216874
:10044000B14201D103211EE0544E2168B14201D1D5
:10045000042118E0524E2168B14201D1052112E079
:10046000504E2168B14201D106210CE04D4E216869
:10047000B14201D1072106E04B4E2168B14201D1C2
:10048000082100E000210B464849096841F48041F9
:10049000464E3160464951F82010960003FA06F6A0
:1004A0003143434E46F8201037490C390968277903
:1004B0000126BE403143344E0C3E316000BF002562
:1004C000A0792179490000FA01F520688068217936
:1004D0004A00032191408843216888602068806831
:1004E0002843216888600025E0792179490000FAD5
:1004F00001F52068C06821794A00032191408843B2
:100500002168C8602068C06828432168C860002549
:10051000207A217900FA01F52068406822790121CA
:1005200091408843216848602068406828432168DA
:10053000486000256079022825D12179CB1701EB8D
:100540005373D8102179CB1701EB5373DB10A1EB58
:10055000C303DAB22168203151F8203096000F2110
:10056000B1408B432168203141F82030216820318F
:1005700051F82010637A9600B34019432368203362
:1005800043F8201000BFF0BD0C3C014000000240C9
:100590000004024000080240000C0240001002402B
:1005A0000014024000180240001C0240443802407F
:1005B00008380140012927D1274A904206D1274A0D
:1005C000126842F00102254B1A6044E0244A90422E
:1005D00006D1224A126842F00202204B1A603AE029
:1005E000204A904206D11D4A126842F004021B4B79
:1005F0001A6030E01C4A90422DD1184A126842F02D
:100600000802164B1A6026E0134A904206D1134A9C
:10061000126822F00102114B1A601CE0104A90424D
:1006200006D10E4A126822F002020C4B1A6012E048
:100630000C4A904206D1094A126822F00402074B84
:100640001A6008E0084A904205D1044A126822F074
:100650000802024B1A607047000002403038024026
:100660000004024000080240000C024002461369E8
:10067000CB4003F0010070470EB5002000900190C0
:1006800002901548009002218DF8051005218DF883
:10069000091000218DF8081001218DF807100221A2
:1006A0008DF806100D208DF804006846FFF74AFE0D
:1006B0000F208DF804006846FFF744FE0E208DF8E9
:1006C00004006846FFF73EFE0C208DF804006846E3
:1006D000FFF738FE0EBD00000004024000B589B0EF
:1006E000202101A8FFF7B2FD0C48019001208DF8F0
:1006F000080001218DF8091002218DF80A1000214F
:100700008DF80B108DF80D108DF80C108DF80E1063
:1007100001A800F00DF809B000BD0000003800404D
:1007200002469068084008B1012070470020FCE7AD
:1007300030B5044600250121206800F027F8207913
:1007400045EA80056079012802D125F400450CE0D6
:100750006079022802D145F4004506E0607903285B
:1007600003D125F4004545F48065A07945EAC0052C
:10077000E07945EAC025607A45EA4005207A0543DC
:10078000A07A45EA40252068056030BD012921D1C5
:10079000214A904206D1214A126842F480521F4BEE
:1007A0001A6038E01E4A904208D11C4A121F126893
:1007B00042F48042194B1B1F1A602CE0194A9042E8
:1007C00029D1164A121F126842F40042134B1B1F14
:1007D0001A6020E0104A904206D1104A126822F4B2
:1007E00080520E4B1A6016E00D4A904208D10B4A17
:1007F000121F126822F48042084B1B1F1A600AE085
:10080000084A904207D1054A121F126822F400429A
:10081000024B1B1F1A6070470030014044380240F1
:1008200000380040003C0040012904D1026842F039
:100830004002026003E0026822F04002026070475A
:1008400030B505460B46144614E000BF012128468A
:10085000FFF766FF0028F9D0286800F4006028B18F
:10086000E8681880641E641E5B1C03E0E86818706A
:10087000641E5B1C002CE8D130BD012904D1426804
:1008800042F00402426003E0426822F00402426047
:10089000704730B505460B46144614E000BF0221F0
:1008A0002846FFF73DFF0028F9D0286800F40060D3
:1008B00028B11888E860641E641E5B1C03E0187889
:1008C000E860641E5B1C002CE8D130BD0146F529B0
:1008D00001D1012070470020FCE7000003480068B8
:1008E00040F47000014908607047000088ED00E0A6
:1008F00037B586B00C461546FF200590012206A9A3
:100900007048FFF7C6FF012204A96E48FFF798FF61
:10091000012205A96B48FFF7BCFF012203A9694822
:10092000FFF78EFF9DF80C00FFF7D0FF002872D074
:100930009DF81800502804D051281AD052286BD1A5
:10094000A2E0012D0AD18DF8084001208DF80900A0
:10095000022202A95B48FFF79CFF09E08DF80840DE
:1009600000208DF80900022202A95648FFF791FFE6
:10097000A4E0052C7ED2DFE804F0031C35506900AA
:100980008DF80840012202A94E48FFF782FF01229C
:1009900004A94C48FFF754FF00F096F8012205A97E
:1009A0004848FFF776FF012269464648FFF748FFAF
:1009B00068E08DF80840012202A94248FFF769FF6C
:1009C000012204A93F48FFF73BFF00F07DF8012218
:1009D00005A93C48FFF75DFF012269463948FFF74A
:1009E0002FFF4FE08DF80840012202A93548FFF79C
:1009F00050FF012204A93348FFF722FF00F064F8FA
:100A0000012205A92F48FFF744FF012269462D481E
:100A1000FFF716FF36E052E04FE08DF80840012264
:100A200002A92848FFF735FF012204A92548FFF74E
:100A300007FF00F049F8012205A92248FFF729FF26
:100A4000012269461F48FFF7FBFE1BE08DF80840B6
:100A5000012202A91B48FFF71CFF012204A9194823
:100A6000FFF7EEFE00F030F8012205A91548FFF768
:100A700010FF00E005E0012269461248FFF7E0FEA2
:100A800000E000BF00BF00BF8DF80840012202A9AE
:100A90000C48FFF7FEFE012204A90A48FFF7D0FE2A
:100AA00000F012F8012205A90648FFF7F2FE012224
:100AB00001A90448FFF7C4FE00E000BF00BF09B071
:100AC00030BD000000380040002000E0401C02491A
:100AD0008842FBD37047000090D00300FFF71AFC58
:100AE000FFF7CAFDFFF7FAFD01211148FFF7C5FE28
:100AF0001CE000BF0D210F48FFF7B8FD0028F9D119
:100B0000FFF7E2FF01210A48FFF78EFE01220921CB
:100B10005020FFF7EDFE00BF80210548FFF700FEE3
:100B20000028F9D100210248FFF77EFEE1E700002E
:100B300000380040000802404FF04070E1EE100A1B
:100B400070470000540B0008000000206006000001
:040B5000C4010008D4
:040000050800018965
:00000001FF
