:020000040800F2
:10000000600600200D020008150200081702000813
:10001000190200081B0200081D0200080000000071
:100020000000000000000000000000001F020008A7
:100030002102000800000000230200082502000839
:1000400027020008270200082702000827020008EC
:1000500027020008270200082702000827020008DC
:1000600027020008270200082702000827020008CC
:1000700027020008270200082702000827020008BC
:1000800027020008270200082702000827020008AC
:10009000270200082702000827020008270200089C
:1000A000270200082702000827020008270200088C
:1000B000270200082702000827020008270200087C
:1000C000270200082702000827020008270200086C
:1000D000270200082702000827020008270200085C
:1000E000270200082702000827020008270200084C
:1000F000270200082702000827020008270200083C
:10010000270200082702000827020008270200082B
:10011000270200082702000827020008270200081B
:10012000270200082702000827020008270200080B
:1001300027020008270200082702000827020008FB
:1001400027020008270200082702000827020008EB
:1001500027020008270200082702000827020008DB
:1001600027020008270200082702000827020008CB
:1001700027020008270200082702000800000000EC
:10018000270200082702000800F002F800F02EF80D
:100190000AA090E8000C82448344AAF10107DA45E2
:1001A00001D100F023F8AFF2090EBAE80F0013F006
:1001B000010F18BFFB1A43F0010318472C0500007C
:1001C0003C0500000023002400250026103A28BF2B
:1001D00078C1FBD8520728BF30C148BF0B607047B9
:1001E0001FB500F07BFA1FBD10B510BD00F031F84F
:1001F0001146FFF7F5FF00F025FA00F04FF803B4C1
:10020000FFF7F2FF03BC00F057F8000009488047F1
:1002100009480047FEE7FEE7FEE7FEE7FEE7FEE7E8
:10022000FEE7FEE7FEE7FEE704480549054A064B00
:10023000704700001D0600088901000860000020CA
:1002400060060020600200206002002070477047B6
:100250007047754600F02CF8AE46050069465346D7
:1002600020F00700854618B020B5FFF7DDFFBDE898
:1002700020404FF000064FF000074FF000084FF00D
:10028000000B21F00701AC46ACE8C009ACE8C0099E
:10029000ACE8C009ACE8C0098D46704710B504460B
:1002A000AFF300802046BDE81040FFF7A8BF000074
:1002B000004870470000002001491820ABBEFEE74F
:1002C0002600020070470000F0B504460025012119
:1002D000206800F031F96079032813DC6079217916
:1002E000490000FA01F52068006821794A000321DD
:1002F000914088432168086020680068284321688D
:1003000008609EE06179042911D180490968277944
:100310000126BE4031437D4E3160311F0968277987
:100320000126BE40B143794E361F316029E0617924
:10033000052912D17549091F096827790126BE4090
:100340003143724E361F3160311D0968277901260D
:10035000BE40B1436D4E316013E06179062910D182
:100360006A49096827790126BE403143674E3160EA
:10037000311F096827790126BE403143634E361F7D
:1003800031602179CE1701EB9676B0102179CE1726
:1003900001EB9676B610A1EB8606F2B25C4E2168B0
:1003A000B14201D1002130E05A4E2168B14201D161
:1003B00001212AE0584E2168B14201D1022124E0F6
:1003C000564E2168B14201D103211EE0544E2168EE
:1003D000B14201D1042118E0524E2168B14201D14D
:1003E000052112E0504E2168B14201D106210CE0F6
:1003F0004D4E2168B14201D1072106E04B4E2168E4
:10040000B14201D1082100E000210B4648490968AA
:1004100041F48041464E3160464951F82010960023
:1004200003FA06F63143434E46F8201037490C399B
:10043000096827790126BE403143344E0C3E3160B5
:1004400000BF0025A0792179490000FA01F5206854
:10045000806821794A00032191408843216888609F
:10046000206880682843216888600025E079217928
:10047000490000FA01F52068C06821794A0003218B
:10048000914088432168C8602068C068284321687B
:10049000C8600025207A217900FA01F520684068BB
:1004A0002279012191408843216848602068406892
:1004B00028432168486000256079022825D12179E8
:1004C000CB1701EB5373D8102179CB1701EB537382
:1004D000DB10A1EBC303DAB22168203151F82030E0
:1004E00096000F21B1408B432168203141F8203024
:1004F0002168203151F82010637A9600B3401943E7
:100500002368203343F8201000BFF0BD0C3C0140AD
:10051000000002400004024000080240000C0240BB
:10052000001002400014024000180240001C02406B
:100530004438024008380140012927D1274A904217
:1005400006D1274A126842F00102254B1A6044E0A6
:10055000244A904206D1224A126842F00202204BFD
:100560001A603AE0204A904206D11D4A126842F0D1
:1005700004021B4B1A6030E01C4A90422DD1184AED
:10058000126842F00802164B1A6026E0134A9042A5
:1005900006D1134A126822F00102114B1A601CE0C6
:1005A000104A904206D10E4A126822F002020C4B09
:1005B0001A6012E00C4A904206D1094A126822F0F1
:1005C0000402074B1A6008E0084A904205D1044A29
:1005D000126822F00802024B1A60704700000240C5
:1005E000303802400004024000080240000C024083
:1005F00002461369CB4003F00100704710B5012A91
:1006000005D1436901248C402343436104E04369DD
:1006100001248C40A343436110BD000003480068DF
:1006200040F47000014908607047000088ED00E068
:10063000002000E0401C02498842FBD370470000C4
:10064000A025260086B0002003900490059000901D
:10065000019002901F48039001218DF81110052090
:100660008DF8100000218DF814108DF81310022160
:100670008DF8121001211748FFF75EFF03A8FFF75E
:1006800023FE154800900D208DF8040000218DF800
:1006900005108DF8071002218DF8061001210E4873
:1006A000FFF74AFF6846FFF70FFE12E00D210A48E8
:1006B000FFF79EFF012807D0FFF7BAFF01220521AF
:1006C0000448FFF79BFF04E0002205210148FFF7E3
:1006D00095FFEBE700000240000802404FF0407039
:1006E000E1EE100A70470000F80600080000002044
:0806F00060060000C4010008CF
:040000050800018965
:00000001FF
