:020000040800F2
:10000000980A002049020008510200085302000823
:1000100055020008570200085902000800000000BD
:100020000000000000000000000000005B0200086B
:100030005D020008000000005F0200086102000885
:1000400063020008630200086302000863020008FC
:1000500063020008630200086302000863020008EC
:1000600063020008630200086302000863020008DC
:1000700063020008630200086302000863020008CC
:1000800063020008630200086302000863020008BC
:1000900063020008630200086302000863020008AC
:1000A000630200086302000863020008630200089C
:1000B000630200086302000863020008630200088C
:1000C000630200086302000863020008630200087C
:1000D000630200086302000863020008630200086C
:1000E000630200086302000863020008630200085C
:1000F000630200086302000863020008630200084C
:10010000630200086302000863020008630200083B
:10011000630200086302000863020008630200082B
:10012000630200086302000863020008630200081B
:10013000630200086302000863020008630200080B
:1001400063020008630200086302000863020008FB
:1001500063020008630200086302000863020008EB
:1001600063020008630200086302000863020008DB
:100170006302000863020008630200080000000038
:10018000630200086302000800F002F800F04CF877
:100190000AA090E8000C82448344AAF10107DA45E2
:1001A00001D100F041F8AFF2090EBAE80F0013F0E8
:1001B000010F18BFFB1A43F0010318473009000074
:1001C000500900000A4410F8014B14F00F0508BF55
:1001D00010F8015B240908BF10F8014B6D1E05D013
:1001E00010F8013B6D1E01F8013BF9D1641E03D0EC
:1001F000641E01F8015BFBD19142E4D3704700001B
:100200000023002400250026103A28BF78C1FBD81F
:10021000520728BF30C148BF0B6070471FB500F0C0
:100220005FFC1FBD10B510BD00F050F81146FFF780
:10023000F5FF00F02FFC00F06EF803B4FFF7F2FFBB
:1002400003BC00F075F800000948804709480047E2
:10025000FEE7FEE7FEE7FEE7FEE7FEE7FEE7FEE776
:10026000FEE7FEE704480549054A064B70470000D3
:10027000110700088901000898040020980A00204E
:10028000980600209806002010B5431C02E010F8E4
:10029000011B71B18107FAD14FF0013202C88C1AEB
:1002A0008C4314EAC211F9D0C01A0A0603D0C01E4A
:1002B00010BDC01A10BD0A0401D0801E10BD090275
:1002C000FCD0401E10BD704770477047754600F067
:1002D0002BF8AE4605006946534620F007008546D8
:1002E00018B020B5FFF7BEFFBDE820404FF0000674
:1002F0004FF000074FF000084FF0000B21F007010E
:10030000AC46ACE8C009ACE8C009ACE8C009ACE850
:10031000C0098D46704710B50446AFF300802046F3
:10032000BDE81040FFF789BF00487047380400203F
:1003300001491820ABBEFEE726000200704700000E
:100340000EB50020009001900290084800900D200A
:100350008DF8040000218DF805108DF8071002219A
:100360008DF80610684600F003F80EBD0008024044
:10037000F0B5044600250121206800F031F96079CC
:10038000032813DC60792179490000FA01F520681F
:10039000006821794A000321914088432168086060
:1003A000206800682843216808609EE0617904297C
:1003B00011D18049096827790126BE4031437D4E1D
:1003C0003160311F096827790126BE40B143794E5B
:1003D000361F316029E06179052912D17549091F5D
:1003E000096827790126BE403143724E361F3160BD
:1003F000311D096827790126BE40B1436D4E316039
:1004000013E06179062910D16A4909682779012624
:10041000BE403143674E3160311F0968277901269C
:10042000BE403143634E361F31602179CE1701EB58
:100430009676B0102179CE1701EB9676B610A1EB27
:100440008606F2B25C4E2168B14201D1002130E053
:100450005A4E2168B14201D101212AE0584E21684B
:10046000B14201D1022124E0564E2168B14201D1AE
:1004700003211EE0544E2168B14201D1042118E04D
:10048000524E2168B14201D1052112E0504E21683F
:10049000B14201D106210CE04D4E2168B14201D19B
:1004A000072106E04B4E2168B14201D1082100E04E
:1004B00000210B464849096841F48041464E3160AD
:1004C000464951F82010960003FA06F63143434E90
:1004D00046F8201037490C39096827790126BE40B3
:1004E0003143344E0C3E316000BF0025A0792179A4
:1004F000490000FA01F52068806821794A0003214B
:10050000914088432168886020688068284321687A
:1005100088600025E0792179490000FA01F520681A
:10052000C06821794A000321914088432168C8604E
:100530002068C06828432168C8600025207A217996
:1005400000FA01F520684068227901219140884332
:100550002168486020684068284321684860002579
:100560006079022825D12179CB1701EB5373D8107C
:100570002179CB1701EB5373DB10A1EBC303DAB284
:100580002168203151F8203096000F21B1408B4373
:100590002168203141F820302168203151F82010A5
:1005A000637A9600B34019432368203343F8201040
:1005B00000BFF0BD0C3C01400000024000040240BE
:1005C00000080240000C02400010024000140240EB
:1005D00000180240001C0240443802400838014024
:1005E000012927D1274A904206D1274A126842F0B2
:1005F0000102254B1A6044E0244A904206D1224A67
:10060000126842F00202204B1A603AE0204A9042FF
:1006100006D11D4A126842F004021B4B1A6030E0FA
:100620001C4A90422DD1184A126842F00802164B1B
:100630001A6026E0134A904206D1134A126822F04B
:100640000102114B1A601CE0104A904206D10E4A7A
:10065000126822F002020C4B1A6012E00C4A90421F
:1006600006D1094A126822F00402074B1A6008E01A
:10067000084A904205D1044A126822F00802024B4F
:100680001A60704700000240303802400004024007
:1006900000080240000C024002461369CB4003F000
:1006A00001007047F0B5154E3668C6F381030BB9EB
:1006B000134A06E0012B01D1124A02E0022B00D0BE
:1006C00000BF0E4E3668C6F30311082901DA012572
:1006D00004E0A1F108060C4F37F81650074E3668B3
:1006E000C6F38221042901DA012402E00E1F074F1C
:1006F000BC5DB2FBF5F6B6FBF4F0F0BD0838024085
:100700000024F40000127A000004002010040020ED
:100710000348006840F47000014908607047000019
:1007200088ED00E00EB500200090019002900F4887
:10073000009002218DF8051007218DF80910002185
:100740008DF8081001218DF8071002218DF8061090
:1007500009208DF804006846FFF70AFE0A208DF88C
:1007600004006846FFF704FE0EBD000000000240D2
:1007700010B50A480A4908604FF4E1310848816021
:100780000021C1730020064908710021044801734B
:100790008173417300F00EF810BD0000001001409D
:1007A0001404002002461068084008B10120704778
:1007B0000020FCE770B5044600250121206800F008
:1007C00041F82079012802D145F0040509E020799B
:1007D00010B945F0080504E02079022801D145F060
:1007E0000C05607B45EA0035A07B012802D145F469
:1007F000806506E0A07B022803D145F4806545F4BE
:1008000000752068C5600025207B45EA003520681A
:1008100005610025E07B012802D145F400750AE05E
:10082000E07B022802D145F4807504E0E07B0328D8
:1008300001D145F4407520684561A168206800F049
:10084000D1F870BD012943D1434A904206D1434AB1
:10085000126842F01002414B1A607CE0404A90421C
:1008600008D13E4A121F126842F400323B4B1B1F54
:100870001A6070E03B4A904208D1384A121F126851
:1008800042F48022354B1B1F1A6064E0364A9042C6
:1008900008D1324A121F126842F400222F4B1B1F4C
:1008A0001A6058E0314A904208D12C4A121F12684F
:1008B00042F48012294B1B1F1A604CE02C4A9042D4
:1008C00049D1264A126842F02002244B1A6042E0C5
:1008D000214A904206D1214A126822F010021F4B91
:1008E0001A6038E01E4A904208D11C4A121F126852
:1008F00022F40032194B1B1F1A602CE0194A904257
:1009000008D1164A121F126822F48022134B1B1FB3
:100910001A6020E0144A904208D1104A121F12684F
:1009200022F400220D4B1B1F1A6014E00F4A904264
:1009300008D10A4A121F126822F48012074B1B1FAB
:100940001A6008E00A4A904205D1044A126822F06F
:100950002002024B1A6070470010014044380240E8
:100960000044004000480040004C0040005000405F
:1009700000140140012904D1C26842F40052C2604F
:1009800003E0C26822F40052C2607047F0B504462A
:100990000B46154600261BE000BF80212068FFF7AC
:1009A00001FF0028F9D0607B01280CD11F46388850
:1009B000C0F3080021684860A07B10B95B1C5B1C79
:1009C00005E05B1C03E01878216848605B1C761C1E
:1009D000AE42E1D300BF40212068FFF7E3FE0028CC
:1009E000F9D0F0BD2DE9F04704460F464FF000085E
:1009F00021498C4202D021498C4202D1FFF752FE9C
:100A000001E0FFF74FFEE16801F4004139B100EB6E
:100A1000C00101EB00117A00B1FBF2F606E000EB39
:100A2000C00101EB0011BA00B1FBF2F66421B6FB84
:100A3000F1F948EA091809EBC90101EB0911A6EB24
:100A40008105E16801F4004141B1322101EBC501AA
:100A50006422B1FBF2F101F0070507E0322101EB5E
:100A600005116422B1FBF2F101F00F0548EA050817
:100A7000C4F80880BDE8F087001001400014014070
:100A8000002000E0401C02498842FBD37047000070
:100A900090D00300FFF754FCFFF744FEFFF768FE19
:100AA00001210B48FFF766FF11E000BF0D21094847
:100AB000FFF7F2FD0028F9D1FFF7E2FF0648FFF744
:100AC000E3FB0446224604490448FFF75FFFECE7D6
:100AD0000010014000080240000000201404002023
:100AE0004FF04070E1EE100A704700000C0B000858
:100AF0000000002014040000C4010008380B0008A6
:100B00001404002084060000000200080EFF48655F
:100B10006C6C6F20776F726C640A0D01FF01FF012E
:100B2000FA3C020004000800100040008018010098
:080B300002020408100000009D
:040000050800018965
:00000001FF
