:020000040800F2
:10000000B00600202902000831020008330200086F
:10001000350200083702000839020008000000001D
:100020000000000000000000000000003B0200088B
:100030003D020008000000003F02000841020008E5
:10004000430200084302000843020008430200087C
:10005000430200084302000843020008430200086C
:10006000430200084302000843020008430200085C
:10007000430200084302000843020008430200084C
:10008000430200084302000843020008430200083C
:10009000430200084302000843020008430200082C
:1000A000430200084302000843020008430200081C
:1000B000430200084302000843020008430200080C
:1000C00043020008430200084302000843020008FC
:1000D00043020008430200084302000843020008EC
:1000E00043020008430200084302000843020008DC
:1000F00043020008430200084302000843020008CC
:1001000043020008430200084302000843020008BB
:1001100043020008430200084302000843020008AB
:10012000430200084302000843020008430200089B
:10013000430200084302000843020008430200088B
:10014000430200084302000843020008430200087B
:10015000430200084302000843020008430200086B
:10016000430200084302000843020008430200085B
:100170004302000843020008430200080000000098
:10018000430200084302000800F002F800F03CF8C7
:100190000AA090E8000C82448344AAF10107DA45E2
:1001A00001D100F031F8AFF2090EBAE80F0013F0F8
:1001B000010F18BFFB1A43F001031847D8080000CD
:1001C000F8080000103A24BF78C878C1FAD852075E
:1001D00024BF30C830C144BF04680C6070470000C1
:1001E0000023002400250026103A28BF78C1FBD840
:1001F000520728BF30C148BF0B6070471FB500F0E1
:1002000043FC1FBD10B510BD00F050F81146FFF7BC
:10021000F5FF00F00BFC00F06EF803B4FFF7F2FFFF
:1002200003BC00F075F80000094880470948004702
:10023000FEE7FEE7FEE7FEE7FEE7FEE7FEE7FEE796
:10024000FEE7FEE704480549054A064B70470000F3
:10025000050A000889010008B0000020B00600204F
:10026000B0020020B002002010B5431C02E010F8DC
:10027000011B71B18107FAD14FF0013202C88C1A0B
:100280008C4314EAC211F9D0C01A0A0603D0C01E6A
:1002900010BDC01A10BD0A0401D0801E10BD090295
:1002A000FCD0401E10BD704770477047754600F087
:1002B0002BF8AE4605006946534620F007008546F8
:1002C00018B020B5FFF7BEFFBDE820404FF0000694
:1002D0004FF000074FF000084FF0000B21F007012E
:1002E000AC46ACE8C009ACE8C009ACE8C009ACE871
:1002F000C0098D46704710B50446AFF30080204614
:10030000BDE81040FFF789BF004870474C0000204F
:1003100001491820ABBEFEE726000200704700002E
:100320000EB50020009001900290084800900D202A
:100330008DF8040000218DF805108DF807100221BA
:100340008DF80610684600F003F80EBD0008024064
:10035000F0B5044600250121206800F031F96079EC
:10036000032813DC60792179490000FA01F520683F
:10037000006821794A000321914088432168086080
:10038000206800682843216808609EE0617904299C
:1003900011D18049096827790126BE4031437D4E3D
:1003A0003160311F096827790126BE40B143794E7B
:1003B000361F316029E06179052912D17549091F7D
:1003C000096827790126BE403143724E361F3160DD
:1003D000311D096827790126BE40B1436D4E316059
:1003E00013E06179062910D16A4909682779012645
:1003F000BE403143674E3160311F096827790126BD
:10040000BE403143634E361F31602179CE1701EB78
:100410009676B0102179CE1701EB9676B610A1EB47
:100420008606F2B25C4E2168B14201D1002130E073
:100430005A4E2168B14201D101212AE0584E21686B
:10044000B14201D1022124E0564E2168B14201D1CE
:1004500003211EE0544E2168B14201D1042118E06D
:10046000524E2168B14201D1052112E0504E21685F
:10047000B14201D106210CE04D4E2168B14201D1BB
:10048000072106E04B4E2168B14201D1082100E06E
:1004900000210B464849096841F48041464E3160CD
:1004A000464951F82010960003FA06F63143434EB0
:1004B00046F8201037490C39096827790126BE40D3
:1004C0003143344E0C3E316000BF0025A0792179C4
:1004D000490000FA01F52068806821794A0003216B
:1004E000914088432168886020688068284321689B
:1004F00088600025E0792179490000FA01F520683B
:10050000C06821794A000321914088432168C8606E
:100510002068C06828432168C8600025207A2179B6
:1005200000FA01F520684068227901219140884352
:100530002168486020684068284321684860002599
:100540006079022825D12179CB1701EB5373D8109C
:100550002179CB1701EB5373DB10A1EBC303DAB2A4
:100560002168203151F8203096000F21B1408B4393
:100570002168203141F820302168203151F82010C5
:10058000637A9600B34019432368203343F8201060
:1005900000BFF0BD0C3C01400000024000040240DE
:1005A00000080240000C024000100240001402400B
:1005B00000180240001C0240443802400838014044
:1005C000012927D1274A904206D1274A126842F0D2
:1005D0000102254B1A6044E0244A904206D1224A87
:1005E000126842F00202204B1A603AE0204A904220
:1005F00006D11D4A126842F004021B4B1A6030E01B
:100600001C4A90422DD1184A126842F00802164B3B
:100610001A6026E0134A904206D1134A126822F06B
:100620000102114B1A601CE0104A904206D10E4A9A
:10063000126822F002020C4B1A6012E00C4A90423F
:1006400006D1094A126822F00402074B1A6008E03A
:10065000084A904205D1044A126822F00802024B6F
:100660001A60704700000240303802400004024027
:1006700000080240000C024002461369CB4003F020
:10068000010070470EB500200090019002900E48C6
:10069000009002218DF8051004218DF80910012128
:1006A0008DF808108DF8071002218DF8061006202D
:1006B0008DF804006846FFF74BFE07208DF8040014
:1006C0006846FFF745FE0EBD0004024010B508481D
:1006D0000849086001210748417261210172002127
:1006E0008172054803494860084600F041F810BD92
:1006F0000054004024000020A086010010B50346ED
:100700001868806900F0010098B1187F012815D1A0
:10071000186A012808D10021186800F099F81868B3
:1007200044691868846909E018684469186884692C
:1007300004E0186844691868846900BF10BD4A065F
:10074000110E21F0010101617047016841F48071CF
:1007500001607047016841F4007101607047024612
:100760005069084008B1012070470020FCE70000F4
:1007700070B5044600250121206800F0BBF8607ABE
:1007800045EA802520680560002500F005F92D491F
:10079000B0FBF1F0054305F03F00216848600025FB
:1007A000207A45EA400545F48045206885600025AB
:1007B00000262549606888420AD800F0EDF8616893
:1007C0004900B0FBF1F086B2C6F30B0005431CE014
:1007D00045F40045A07A45EA8035A07A40B900F09A
:1007E000DBF8616801EB4101B0FBF1F086B209E092
:1007F00000F0D2F8616801EBC10202EB0111B0FB1D
:10080000F1F086B2C6F30B0005432068C5610025F0
:100810000D496068884206D800F0BEF80949B0FB6F
:10082000F1F0451C08E000F0B7F84FF4967148432A
:100830000649B0FBF1F0451C05F03F002168086255
:1008400070BD000040420F00A086010000CA9A3B24
:10085000012904D1026842F48062026003E0026868
:1008600022F48062026070472DE9F04104460D4693
:1008700016461F46DDF818802068FFF766FF00BFA8
:1008800001212068FFF76BFF0028F9D03946206866
:10089000FFF755FF00BF02212068FFF760FF002827
:1008A000F9D02046FFF72AFF0BE000BF8021206827
:1008B000FFF755FF0028F9D02878216808616D1CE2
:1008C000761E002EF1D100BF80212068FFF747FF80
:1008D0000028F9D000BF04212068FFF740FF00285E
:1008E000F9D0B8F1000F02D12068FFF733FFBDE85F
:1008F000F081000001291DD11D4A904206D11D4AF8
:10090000126842F400121B4B1A6030E01A4A9042FF
:1009100006D1184A126842F48002164B1A6026E08B
:10092000164A904223D1134A126842F40002114B36
:100930001A601CE00E4A904206D10E4A126822F458
:1009400000120C4B1A6012E00B4A904206D1094A81
:10095000126822F48002074B1A6008E0074A9042AE
:1009600005D1044A126822F40002024B1A60704753
:10097000005400404038024000580040005C0040F5
:10098000012904D1026842F00102026003E002681A
:1009900022F0010202607047F0B5154E3668C6F3CA
:1009A00081030BB9134A06E0012B01D1124A02E080
:1009B000022B00D000BF0E4E3668C6F30311082983
:1009C00001DA012504E0A1F108060C4F37F81650B2
:1009D000074E3668C6F38221042901DA012402E0B9
:1009E0000E1F074FBC5DB2FBF5F6B6FBF4F0F0BD91
:1009F000083802400024F40000127A000E000020A3
:100A00001E0000200348006840F47000014908609F
:100A10007047000088ED00E0002000E0401C024923
:100A20008842FBD37047000090D0030008B5FFF761
:100A300077FCFFF727FEFFF749FE01210E48FFF77D
:100A40009FFF01210C48FFF703FF14E000BF0D21B9
:100A50000A48FFF711FE0028F9D1FFF7DDFF08482B
:100A6000FFF702FC04460020682322460449009058
:100A70000448FFF7F9FEE9E700540040000802408F
:100A800000000020240000204FF04070E1EE100A2A
:100A900070470000B40A0008000000202400000095
:100AA000C4010008D80A0008240000208C060000B9
:100AB000E001000868656C6C6F20776F726C640AE7
:100AC0000000020004000800100040008000000147
:080AD0000002020408100000FE
:040000050800018965
:00000001FF
